:1000000045C000004BC0000049C0000047C00000D0
:1000100045C0000043C0000041C000003FC00000D8
:100020003DC000003BC0000039C0000037C00000E8
:1000300035C0000033C0000031C000002FC00000F8
:100040002DC000002BC0000029C0000027C0000008
:1000500025C0000023C0000021C000001FC0000018
:100060001DC000001BC0000019C0000017C0000028
:1000700015C0000013C0000011C000000FC0000038
:100080000DC000000BC0000009C0000011241FBEFD
:10009000CFEFD0E1DEBFCDBF3DD05BC0B1CF24E01C
:1000A00022BB35E03A95F1F7000094E192BB382F7E
:1000B000307F35BB22BB3AE03A95F1F700C092BBE6
:1000C00030E1839FC001112485BB22BB8FE99FE0F3
:1000D0000197F1F700C00000089512BA25E02A95B3
:1000E000F1F7000090E192BB282F207F25BB12BAC8
:1000F0002AE02A95F1F700C092BB20E1829FC0015F
:10010000112485BB12BA8FE99FE00197F1F700C077
:10011000000008958FEF84BB81BB2FEF80E792E052
:10012000215080409040E1F700C0000088E2D5DF18
:100130008CE0D3DF86E0D1DF81E0CFDF8FE39FE18A
:100140000197F1F700C0000081E4A9DF80E090E0B2
:060150000895F894FFCFB2
:00000001FF
